:0400000079EF00F0A4
:08000800046ED8CF05F0E0CF33
:1000100006F00001E9CF0CF0EACF07F0E1CF08F0DD
:10002000E2CF09F0D9CF0AF0DACF0BF0F3CF12F01C
:10003000F4CF13F0FACF14F0F5CF15F0F6CF16F099
:10004000F7CF17F000C00EF001C00FF002C010F0A3
:1000500003C011F0F2AA30EF00F0F2B45DEF00F04F
:10006000F2A836EF00F0F2B260EF00F00EC000F040
:100070000FC001F010C002F011C003F00CC0E9FF86
:1000800007C0EAFF078E08C0E1FF09C0E2FF0AC00F
:10009000D9FF0BC0DAFF12C0F3FF13C0F4FF14C086
:1000A000FAFF15C0F5FF16C0F6FF17C0F7FF0450A2
:1000B00006C0E0FF05C0D8FF1000F29436EF00F054
:1000C000F29236EF00F0700ED36E9B6AD350C1509F
:1000D000C00B0E09C16EC050C00B0709C06EC09E98
:1000E000C280840ED56EF28AF288C00EF2128BEFB7
:1000F00000F0F86AD09E078E700ED36E9B6AD350C4
:1001000092908980C150C00B0F09C16E070EB46E6A
:10011000196A1A6AD8D7000E016EC250C30B0110BB
:10012000C26E090E006E002EFED700D0C282C2B28F
:10013000FED7206AC4CF1FF0010E005C07E0020E5C
:10014000005C0BE0030E005C0FE015D093928A82F6
:1001500093948A9493968A9614D093928A829394D5
:100160008A8493968A960DD093928A8293948A84F5
:1001700093968A8606D093928A9293948A949396C1
:060180008A96D4D7FFD7D8
:020000040030CA
:0E00000000C8191E008700000FC00FE00F405F
:00000001FF
;PIC18F4620
;CRC=BC99  CREATED="17-Jan-22 23:41"
