:0400000058EF01F0C4
:08000800046ED8CF05F0E0CF33
:1000100006F00001E9CF0CF0EACF07F0E1CF08F0DD
:10002000E2CF09F0D9CF0AF0DACF0BF0F3CF12F01C
:10003000F4CF13F0FACF14F000C00EF001C00FF0AF
:1000400002C010F003C011F09DA22AEF00F09EB292
:100050004BEF00F00EC000F00FC001F010C002F036
:1000600011C003F00CC0E9FF07C0EAFF078E08C00B
:10007000E1FF09C0E2FF0AC0D9FF0BC0DAFF12C0DE
:10008000F3FF13C0F4FF14C0FAFF045006C0E0FFF2
:1000900005C0D8FF10009E922AEF00F0C150C00B9F
:1000A0000E09C16EC050C00BC06EC09EC280969833
:1000B000C69A949A94889496010EC66E000EC76EE6
:1000C000D190800ED56ECD6A000E0409CA6EC70E9F
:1000D000CB6EB16A070EB46E9250926E060E006E31
:1000E000002EFED70000B450A19CB56A9D82C00EC0
:1000F000F212720ED36E800E9B6ED3506EEF01F033
:100100001850550803E3010E016E0BD018507F08FC
:1001100003E3020E016E05D0030E016E02D0000E45
:10012000016E76EF01F0185202E18A9201D08A82C4
:100130009392195202E18A9401D08A8493941A52BC
:1001400002E18A9601D08A869396000C1750FC0F24
:100150001AE2040FC5EF00F0186A196A1A6AE3DFA1
:1001600012D0010E186E196A1A6ADDDF0CD0010E6A
:10017000186E196E1A6AD7DF06D0010E186E196E46
:100180001A6ED1DF00D07BEF01F0F2CF0DF0F29EBE
:10019000E824F76AF736AF0FF66E010EF7220A0071
:1001A000F550FA6E0800F5500DBEF28EF96E58014A
:1001B00062016E017A011950070B006E1930016E51
:1001C000013201321F0E011601501B24E96E000E90
:1001D0001C20EA6E016A012A002A01D00136002E95
:1001E000FDD71A5203E00150EF1203D0011E015057
:1001F000EF16000C1950070B006E1930016E01321A
:1002000001321F0E011601501A24E96E000E1B2048
:10021000EA6EEFCF01F0002A01D00132002EFDD7A7
:10022000000CEA6A190EE96EEF500DE0020E016E45
:10023000006A002EFED7012EFBD7970E006E002E0F
:10024000FED7EF2EF3D73AEF01F017C019F0010EE9
:100250001A6E0F0E1C6E920E1B6EADDF17C019F0DA
:100260000F0E1B6E800E1A6EC5DF01A01DD00A0E88
:10027000196ED7D717C019F0010E1A6E0F0E1C6E2B
:10028000920E1B6E98DF17C019F00F0E1B6E800EBA
:100290001A6EB0DF01B004D0010E016E08D003D099
:1002A000000E016E04D003D0000E016E00D0000CD1
:1002B000F86AD09E078EEA6AE96A700ED36ED35050
:1002C000B8960C0EAF6EA20EAC6E900EAB6EC15017
:1002D000C00B0F09C16E070EB46EE0D6C282C2B267
:1002E000FED7C4CF17F0C4CF18F00AD701C016F05C
:1002F00016C017F02BD77C0E186E020E176EA5DFF6
:10030000015202E095908C807C0E186E030E176EE1
:0E0310009CDF015202E095928C82E0D7030040
:020000040030CA
:0E00000000C8190E008781000FC00FE00F40EE
:00000001FF
;PIC18F4620
;CRC=1C2F  CREATED="21-Jan-22 03:05"
