:0400000069EF01F0B3
:08000800046ED8CF05F0E0CF33
:1000100006F00001E9CF0CF0EACF07F0E1CF08F0DD
:10002000E2CF09F0D9CF0AF0DACF0BF0F3CF12F01C
:10003000F4CF13F0FACF14F0F5CF15F0F6CF16F099
:10004000F7CF17F000C00EF001C00FF002C010F0A3
:1000500003C011F0F2AA30EF00F0F2B45DEF00F04F
:10006000F2A836EF00F0F2B260EF00F00EC000F040
:100070000FC001F010C002F011C003F00CC0E9FF86
:1000800007C0EAFF078E08C0E1FF09C0E2FF0AC00F
:10009000D9FF0BC0DAFF12C0F3FF13C0F4FF14C086
:1000A000FAFF15C0F5FF16C0F6FF17C0F7FF0450A2
:1000B00006C0E0FF05C0D8FF1000F29436EF00F054
:1000C000F29236EF00F0700ED36E9B6AD350C1509F
:1000D000C00B0E09C16EC050C00B0709C06EC09E98
:1000E000C280840ED56EF28AF288C00EF2127BEFC7
:1000F00001F0000E016EC250C30B0110C26E0D0E56
:10010000006E002EFED7C282C2B2FED7C4CF22F04C
:1001100022C001F08DEF00F0ECD701C020F020509C
:10012000020802E3000E01D0010E550803E3010EA0
:10013000216E19D02050550802E3000E01D0010EA7
:100140007F0803E3020E216E0ED020507F0802E3E9
:10015000000E01D0010EFF0803E0030E216E03D054
:10016000000E016E02D021C001F07CEF01F02050A2
:10017000FC0F1EE2040FDAEF00F093928A92939440
:100180008A9493968A9614D093928A8293948A94AE
:1001900093968A960DD093928A8293948A849396AA
:1001A0008A9606D093928A8293948A8493968A86BA
:1001B00081EF01F0E824F76AF736CF0FF66E010EF3
:1001C000F7220A00F550FA6E0800F550F96E7A0130
:1001D00088019601A4012250070B006E2230016EA7
:1001E000013201321F0E011601502424E96E000E67
:1001F0002520EA6E016A012A002A01D00136002E6C
:10020000FDD7235203E00150EF1203D0011E01502D
:10021000EF1612002250070B006E2230016E0132E1
:1002200001321F0E011601502324E96E000E242016
:10023000EA6EEFCF01F0002A01D00132002EFDD787
:10024000010E01161200EA6A220EE96EEF500DE06F
:10025000020E016E006A002EFED7012EFBD7970E0C
:10026000006E002EFED7EF2EF3D74CEF01F020C02A
:1002700022F0010E236E0F0E256E920E246EABDF60
:1002800020C022F00F0E246E800E236EC3DF01A06B
:100290001DD00A0E226ED7D720C022F0010E236E89
:1002A0000F0E256E920E246E96DF20C022F00F0EE8
:1002B000246E800E236EAEDF01B004D0010E016EFD
:1002C00007D003D0000E016E03D002D0000E016EE5
:1002D0001200F86AD09E078E700ED36E9B6AD350C0
:1002E00092908980C150C00B0F09C16E070EB46E89
:1002F000196A1A6AE8D610D701C01FF01FC020F093
:1003000036D77C0E216E020E206EB1DF015202E064
:1003100095908C807C0E216E030E206EA8DF01521A
:0A03200002E095928C82E7D7FFD728
:020000040030CA
:0E00000000C8191E008700000FC00FE00F405F
:00000001FF
;PIC18F4620
;CRC=0DF7  CREATED="20-Jan-22 22:52"
